S00E00006C61622031322E7372656364
S11300000C943E000C945B000C945B000C945B001D
S11300100C945B000C945B000C945B000C945B00F0
S11300200C945B000C945B000C945B000C945B00E0
S11300300C945B000C945B000C945B000C945B00D0
S11300400C945B000C945B000C945B000C945B00C0
S11300500C945B000C945B000C945B000C945B00B0
S11300600C945B000C945B000C945B000C945B00A0
S11300700C945B000C945B000C945B0011241FBE79
S1130080CFEFD8E0DEBFCDBF11E0A0E0B1E0E6E203
S1130090F7E002C005900D92A63BB107D9F721E025
S11300A0A6EBB1E001C01D92AD3BB207E1F70E949F
S11300B061010C9491030C9400001F93CF93DF9380
S11300C0192FE82FF0E0EE0FFF1FE25EFE4FC08114
S11300D0D1819E010D2E000C440B550B64E274EF8C
S11300E080E090E00E943C031C9FB0011D9F700DB6
S11300F01124772314F46D5F7F4F7595679575957B
S1130100679516161706BCF440E050E0E2E0A0E064
S1130110F0E088B18E2788B9121613063CF48A2FB2
S11301209F2F0000019682179307DCF34F5F5F4F08
S11301304617570771F7DF91CF911F9108950097E4
S113014069F020E030E0E9EFF0E03197F1F700C02A
S113015000002F5F3F4F28173907A9F70895EF9242
S1130160FF920F931F93CF93DF93CDB7DEB7E9844C
S1130170F12C1E141F04C4F400E010E0F801EE0F8B
S1130180FF1F89E090E08C0F9D1FE80FF91F81810C
S113019092810E945D008AE090E00E949F000F5FC0
S11301A01F4F0E151F0551F7DF91CF911F910F912E
S11301B0FF90EF900895CF93DF93CDB7DEB76097AC
S11301C00FB6F894DEBF0FBECDBF90E1EEE0F1E0D4
S11301D0DE01119601900D929A95E1F7803138F481
S11301E0FE01E80FF11D87FDFA95818101C08FEFB3
S11301F060960FB6F894DEBF0FBECDBFDF91CF91EE
S11302000895CF93DF93E0E1F0E080E090E0D1E067
S1130210C0E0B2E0A0E0E1B9E2B9EE0FFF1F00993F
S11302200BC04D2F5C2F6B2F7A2F20B130E026238B
S11302303723232B39F002C040E050E0880F880FA9
S1130240840F0CC0660F771F4F5F5F4F443051051A
S113025061F7019684309105F1F68FEFDF91CF912C
S113026008950F931F93CF93DF93C0E0D0E00AE08B
S113027010E00E9401018F3FE1F70E9401010E94FA
S1130280DB008A3070F49E01220F331FCC0FDD1F78
S1130290CC0FDD1FCC0FDD1FC20FD31FC80FD11D24
S11302A0E8CF8A3231F4CE01B8010E942803EB0171
S11302B0E0CF8332F1F6CE01DF91CF911F910F9100
S11302C00895399A18B80E94380280E091E090931A
S11302D0BA018093B901CDE30E943101992781309D
S11302E0910519F00297F1F0F7CF8DB79EB7CD972E
S11302F00FB6F8949EBF0FBE8DBFADB7BEB71196B3
S1130300ECE3F1E08C2F01900D928A95E1F70E94C5
S1130310AF008DB79EB7CD960FB6F8949EBF0FBEB3
S11303208DBFDACF8DB79EB7CD970FB6F8949EBF29
S11303300FBE8DBFADB7BEB71196E9E7F1E08C2FC4
S113034001900D928A95E1F70E94AF008DB79EB798
S1130350CD960FB6F8949EBF0FBE8DBFBDCF479A02
S113036085E08A95F1F70000479885E08A95F1F7D2
S11303700000089584B1807F84B995B1292F20713C
S11303802C98469A479A85E08A95F1F7000093B134
S1130390479885E08A95F1F70000479A85E08A95A9
S11303A0F1F7000083B19295907F8F70892B479865
S11303B095E09A95F1F7000087FDE4CF469895B152
S11303C09F7E922B95B994B19F6094B908950E9431
S11303D0BA0184B1807F84B9469A479A85E08A95A8
S11303E0F1F7000023B1479885E08A95F1F7000002
S11303F0479A85E08A95F1F7000093B12295207F12
S1130400892F8F704798469894B19F6094B9822B36
S11304100895CF93C82F0E94BA0195B18C2F82956D
S11304208F70907F982B95B90E94AF0195B18C2F56
S11304308F70907F892B85B9CF910C94AF01CF93A6
S1130440C82F2C980E94BA0195B18C2F82958F7079
S1130450907F982B95B90E94AF0195B18C2F8F7026
S1130460907F892B85B90E94AF012C9ACF91089572
S113047085B1807E85B92C984698479884B18F6160
S113048084B987B1806C87B98FE59AEE0197F1F74B
S113049000C0000085B1807F836085B90E94AF01F0
S11304A087E090E20197F1F700C0000085B1807FFA
S11304B0836085B90E94AF0187EC90E00197F1F762
S11304C000C0000085B1807F836085B90E94AF01C0
S11304D00E94BA0185B1807F826085B90E94AF0114
S11304E084E20E941F028CE20E941F0288E00E94A4
S11304F01F0281E00E941F0286E00E941F028FE01B
S11305000E941F0280ED0E941F022C9A08953F92C0
S11305104F925F926F927F928F929F92AF92BF920F
S1130520CF92DF92EF92FF920F931F93CF93DF93BB
S1130530CDB7DEB7E0970FB6F894DEBF0FBECDBFE0
S11305408A3009F481C0382E8091B60181111DC012
S1130550832D0E94090281E090E0E0960FB6F894A2
S1130560DEBF0FBECDBFDF91CF911F910F91FF90E2
S1130570EF90DF90CF90BF90AF909F908F907F903F
S11305806F905F904F903F90089580EC0E941F02FF
S11305908E010F5F1F4F4E0181E1880E911C78017F
S11305A00E94E701F70181937F01E815F905C1F77E
S11305B080E90E941F0264015E01F1E2AF0EB11CEA
S11305C074010E94E701F70181937F01EA15FB059D
S11305D0C1F780ED0E941F0275013E01F1E36F0E29
S11305E0711C25010E94E701F20181932F01E61598
S11305F0F705C1F781E00E941F0280E80E941F02F4
S1130600F80181918F010E94090280169106C1F7B9
S113061080EC0E941F02F60181916F010E94090281
S1130620AC14BD04C1F780E90E941F02F701819157
S11306307F010E9409026E147F04C1F780ED0E94BD
S11306401F021092B60184CF81E08093B60183CF5C
S113065097FB072E16F4009407D077FD09D00E946B
S11306605B0307FC05D03EF4909581959F4F089558
S1130670709561957F4F0895052E97FB1EF40094A5
S11306800E94530357FD07D00E946F0307FC03D059
S11306904EF40C94530350954095309521953F4F5B
S11306A04F4F5F4F089590958095709561957F4F5A
S11306B08F4F9F4F0895AA1BBB1B51E107C0AA1F70
S11306C0BB1FA617B70710F0A61BB70B881F991FEF
S11306D05A95A9F780959095BC01CD010895A1E2A2
S11306E01A2EAA1BBB1BFD010DC0AA1FBB1FEE1FA8
S11306F0FF1FA217B307E407F50720F0A21BB30BF3
S1130700E40BF50B661F771F881F991F1A9469F76E
S113071060957095809590959B01AC01BD01CF01CA
S10907200895F894FFCFD8
S11307260000000200000000870200000000010231
S1130736030A0405060B0708090C2A00230D060103
S11307461501260137014A015D01720188019F01E5
S1130756B801D201EE010B022A024B021A0403026B
S1130766010002020204020402040402020202025A
S1130776040402070207040403020100020202043D
S11307860204020402040202020202040202020039
S11307960800000000000000000E020C0401020321
S11307A60101020307040B080E04070207020904E9
S11307B6070406080408000000000000000000000A
S11307C6000000000000000000000000000000001F
S10907D600000000000019
S9030000FC
