S00E00006C61622031312E7372656365
S11300000C943E000C945B000C945B000C945B001D
S11300100C945B000C945B000C945B000C945B00F0
S11300200C945B000C945B000C945B000C945B00E0
S11300300C945B000C945B000C945B000C945B00D0
S11300400C945B000C945B000C945B000C945B00C0
S11300500C945B000C945B000C945B000C945B00B0
S11300600C945B000C945B000C945B000C945B00A0
S11300700C945B000C945B000C945B0011241FBE79
S1130080CFEFD8E0DEBFCDBF11E0A0E0B1E0E4EBFC
S1130090FCE002C005900D92AA3BB107D9F721E01C
S11300A0AAEBB1E001C01D92A13CB207E1F70E94A6
S11300B07E010C9458060C940000CF93DF93E0E18A
S11300C0F0E080E090E0D1E0C0E0B2E0A0E0E1B98F
S11300D0E2B9EE0FFF1F00990BC04D2F5C2F6B2F61
S11300E07A2F20B130E026233723232B39F002C0A6
S11300F040E050E0880F880F840F0CC0660F771F14
S11301004F5F5F4F4430510561F70196843091058C
S1130110F1F68FEFDF91CF910895CF93DF93CDB7B1
S1130120DEB760970FB6F894DEBF0FBECDBF803147
S113013098F490E1EEE0F1E0DE01119601900D9269
S11301409A95E1F7E1E0F0E0EC0FFD1FE80FF11DF7
S113015087FDFA95808101C08FEF60960FB6F89401
S1130160DEBF0FBECDBFDF91CF9108950F931F93D4
S1130170CF93DF93C0E0D0E00AE010E00E945D007E
S11301808F3FE1F70E945D000E948D008A3070F479
S11301909E01220F331FCC0FDD1FCC0FDD1FCC0FB0
S11301A0DD1FC20FD31FC80FD11DE8CF8A3231F42F
S11301B0CE01B8010E942403EB01E0CF8332F1F6B3
S11301C0CE01DF91CF911F910F9108954C978095A7
S11301D09095909385008093840081E086BBB09BCA
S11301E0FECF08950F931F93CF93DF9300D0CDB725
S11301F0DEB78C011A82198289819A81801791074E
S113020078F488EE93E00E94E60029813A812F5F1A
S11302103F4F3A83298329813A812017310788F394
S11302200F900F90DF91CF911F910F910895DF925E
S1130230EF92FF920F931F93CF93DF93E82FF0E099
S1130240EE0FFF1FEE5DFE4F20813181929F700102
S1130250939FF00C1124F694E794F694E794F694A3
S1130260E79440E050E060E271EA87E090E00E94A9
S113027038038901E114F104C9F0C0E0D0E06894C6
S1130280DD24D1F838B13D2538B9C8010E94E60013
S113029038B13D2538B9C8010E94E6008AE090E0F3
S11302A00E94F2002196CE15DF0561F7DF91CF9110
S11302B01F910F91FF90EF90DF9008950F931F937C
S11302C0CF93DF93FC012081222399F08C01C0E0BD
S11302D0D0E0FE01EE0FFF1FE00FF11F818192813C
S11302E00E9417012196F801208130E0C217D3073C
S11302F084F3DF91CF911F910F91089580EF81B91D
S113030087B9C1E0C09381000E94340280E091E08B
S11303109093BE018093BD01C8B90EE111E00E9423
S1130320B600C82F99279F938F931F930F930E9412
S11303308D030F900F900F900F90C53029F480E437
S113034091E00E945E01EBCFC63049F78DE791E062
S11303500E945E01E4CF479A85E08A95F1F7000098
S1130360479885E08A95F1F70000089584B1807F6D
S113037084B995B1292F20712C98469A479A85E023
S11303808A95F1F7000093B1479885E08A95F1F7D3
S11303900000479A85E08A95F1F7000083B19295B1
S11303A0907F8F70892B479895E09A95F1F700001C
S11303B087FDE4CF469895B19F7E922B95B994B171
S11303C09F6094B908950E94B60184B1807F84B976
S11303D0469A479A85E08A95F1F7000023B1479839
S11303E085E08A95F1F70000479A85E08A95F1F750
S11303F0000093B12295207F892F8F7047984698EB
S113040094B19F6094B9822B0895CF93C82F0E9412
S1130410B60195B18C2F82958F70907F982B95B9EA
S11304200E94AB0195B18C2F8F70907F892B85B979
S1130430CF910C94AB01CF93C82F2C980E94B60196
S113044095B18C2F82958F70907F982B95B90E94CF
S1130450AB0195B18C2F8F70907F892B85B90E9449
S1130460AB012C9ACF91089585B1807E85B92C98E3
S11304704698479884B18F6184B987B1806C87B9F5
S11304808FE59AEE0197F1F700C0000085B1807FF7
S1130490836085B90E94AB0187E090E20197F1F790
S11304A000C0000085B1807F836085B90E94AB01E4
S11304B087EC90E00197F1F700C0000085B1807FE0
S11304C0836085B90E94AB010E94B60185B1807F2B
S11304D0826085B90E94AB0184E20E941B028CE217
S11304E00E941B0288E00E941B0281E00E941B0202
S11304F086E00E941B028FE00E941B0280ED0E9496
S11305001B022C9A08953F924F925F926F927F92B2
S11305108F929F92AF92BF92CF92DF92EF92FF920F
S11305200F931F93CF93DF93CDB7DEB7E0970FB64A
S1130530F894DEBF0FBECDBF8A3009F481C0382ED7
S11305408091BA0181111DC0832D0E94050281E0B2
S113055090E0E0960FB6F894DEBF0FBECDBFDF91FA
S1130560CF911F910F91FF90EF90DF90CF90BF90AC
S1130570AF909F908F907F906F905F904F903F903F
S1130580089580EC0E941B028E010F5F1F4F4E01E5
S113059081E1880E911C78010E94E301F7018193A7
S11305A07F01E815F905C1F780E90E941B02640187
S11305B05E01F1E2AF0EB11C74010E94E301F70188
S11305C081937F01EA15FB05C1F780ED0E941B02B0
S11305D075013E01F1E36F0E711C25010E94E301D8
S11305E0F20181932F01E615F705C1F781E00E941E
S11305F01B0280E80E941B02F80181918F010E9476
S1130600050280169106C1F780EC0E941B02F601D8
S113061081916F010E940502AC14BD04C1F780E909
S11306200E941B02F70181917F010E9405026E1452
S11306307F04C1F780ED0E941B021092BA0184CF9F
S113064081E08093BA0183CF97FB072E16F40094C0
S113065007D077FD09D00E94570307FC05D03EF46C
S1130660909581959F4F0895709561957F4F08955A
S1130670052E97FB1EF400940E944F0357FD07D0EC
S11306800E946B0307FC03D04EF40C944F03509567
S11306904095309521953F4F4F4F5F4F089590956A
S11306A08095709561957F4F8F4F9F4F0895AA1B3A
S11306B0BB1B51E107C0AA1FBB1FA617B70710F049
S11306C0A61BB70B881F991F5A95A9F7809590957B
S11306D0BC01CD010895A1E21A2EAA1BBB1BFD018A
S11306E00DC0AA1FBB1FEE1FFF1FA217B307E4070D
S11306F0F50720F0A21BB30BE40BF50B661F771F65
S1130700881F991F1A9469F7609570958095909544
S11307109B01AC01BD01CF010895A0E0B0E0E3E985
S1130720F3E00C943106AE014B5F5F4FFA01619127
S11307307191AF018091BD019091BE010E94A3030C
S1130740E2E00C944D06ACE0B0E0E9EAF3E00C948E
S113075021067C016B018A01FC01178216828381C8
S113076081FFBDC1CE0101964C01F7019381F601D1
S113077093FD859193FF81916F01882309F4ABC1A7
S1130780853239F493FD859193FF81916F01853210
S113079029F4B70190E00E948B05E7CF512C312C4E
S11307A020E02032A0F48B3269F030F4803259F02A
S11307B0833269F420612CC08D3239F0803339F4EE
S11307C0216026C02260246023C0286021C027FD48
S11307D027C030ED380F3A3078F426FF06C0FAE02F
S11307E05F9E300D1124532E13C08AE0389E300DC5
S11307F01124332E20620CC08E3221F426FD6BC1ED
S1130800206406C08C3611F4206802C0883641F496
S1130810F60193FD859193FF81916F018111C1CF01
S1130820982F9F7D9554933028F40C5F1F4FFFE35E
S1130830F9830DC0833631F0833771F0833509F0C5
S11308405BC022C0F801808189830E5F1F4F44245E
S11308504394512C540115C03801F2E06F0E711C01
S1130860F801A080B18026FF03C0652D70E002C0AE
S11308706FEF7FEFC5012C870E9480052C01830157
S11308802C852F77222E17C03801F2E06F0E711CD1
S1130890F801A080B18026FF03C0652D70E002C07E
S11308A06FEF7FEFC5012C870E9475052C012C8505
S11308B02068222E830123FC1BC0832D90E0481660
S11308C05906B0F4B70180E290E00E948B053A9497
S11308D0F4CFF50127FC859127FE81915F01B701D3
S11308E090E00E948B0531103A94F1E04F1A5108C0
S11308F04114510471F7E5C0843611F0893639F595
S1130900F80127FF07C060817181828193810C5FA8
S11309101F4F08C060817181072E000C880B990B52
S11309200E5F1F4F2F76722E97FF09C0909580950A
S1130930709561957F4F8F4F9F4F2068722E2AE0EC
S113094030E0A4010E94C305A82EA81844C085372E
S113095029F42F7EB22E2AE030E025C0F22FF97F51
S1130960BF2E8F36C1F018F4883579F0B4C08037C3
S113097019F0883721F0AFC02F2F2061B22EB4FEBA
S11309800DC08B2D8460B82E09C024FF0AC09F2F90
S11309909660B92E06C028E030E005C020E130E0C2
S11309A002C020E132E0F801B7FE07C06081718126
S11309B0828193810C5F1F4F06C06081718180E04A
S11309C090E00E5F1F4FA4010E94C305A82EA81833
S11309D0FB2DFF777F2E76FE0BC0372D3E7FA514AF
S11309E050F474FE0AC072FC08C0372D3E7E05C068
S11309F0BA2C372D03C0BA2C01C0B52C34FF0DC05E
S1130A00FE01EA0DF11D8081803311F4397E09C0A5
S1130A1032FF06C0B394B39404C0832F867809F0E0
S1130A20B39433FD13C030FF06C05A2CB31418F42A
S1130A30530C5B18B32CB31468F4B70180E290E054
S1130A403C870E948B05B3943C85F5CFB31410F416
S1130A503B1801C0312C34FF12C0B70180E390E091
S1130A603C870E948B053C8532FF17C031FD03C0D3
S1130A7088E790E002C088E590E0B7010CC0832FBE
S1130A80867859F031FF02C08BE201C080E237FD65
S1130A908DE2B70190E00E948B05A51438F4B701EC
S1130AA080E390E00E948B055A94F7CFAA94F40156
S1130AB0EA0DF11D8081B70190E00E948B05A11021
S1130AC0F5CF332009F451CEB70180E290E00E94C3
S1130AD08B053A94F6CFF7018681978102C08FEF98
S1130AE09FEF2C96E2E10C943D06FC0105906150C9
S1130AF070400110D8F7809590958E0F9F1F089530
S1130B00FC016150704001900110D8F780959095D8
S1130B108E0F9F1F08950F931F93CF93DF93FB01B5
S1130B20238121FD03C08FEF9FEF28C022FF16C051
S1130B3046815781248135814217530744F4A081AB
S1130B40B1819D012F5F3F4F318320838C93268198
S1130B5037812F5F3F4F3783268310C0EB01092F66
S1130B60182F0084F185E02D0995892BE1F68E81FB
S1130B709F8101969F838E83812F902FDF91CF9148
S1130B801F910F910895FA01AA27283051F12031BD
S1130B9081F1E8946F936E7F6E5F7F4F8F4F9F4F0D
S1130BA0AF4FB1E03ED0B4E03CD0670F781F891F4F
S1130BB09A1FA11D680F791F8A1F911DA11D6A0F1D
S1130BC0711D811D911DA11D20D009F468943F91D0
S1130BD02AE0269F11243019305D3193DEF6CF01CF
S1130BE00895462F4770405D4193B3E00FD0C9F795
S1130BF0F6CF462F4F70405D4A3318F0495D31FD02
S1130C004052419302D0A9F7EACFB4E0A695979554
S1130C10879577956795BA95C9F70097610571052A
S1130C2008959B01AC010A2E069457954795379574
S1130C302795BA95C9F7620F731F841F951FA01DCE
S1130C4008952F923F924F925F926F927F928F926C
S1130C509F92AF92BF92CF92DF92EF92FF920F9347
S1130C601F93CF93DF93CDB7DEB7CA1BDB0B0FB651
S1130C70F894DEBF0FBECDBF09942A88398848880E
S1130C805F846E847D848C849B84AA84B984C884A4
S1130C90DF80EE80FD800C811B81AA81B981CE0F9B
S1130CA0D11D0FB6F894DEBF0FBECDBFED01089580
S1070CB0F894FFCFE2
S1130CB400000002000000008302000000000102A2
S1130CC4030A0405060B0708090C2A00230D2564EE
S1130CD40A0006011501260137014A015D0172016A
S1130CE488019F01B801D201EE010B022A024B02D2
S1130CF41A040302010002020204020402040402AC
S1130D0402020202040402070207040403020100AB
S1130D1402020204020402040204020202020204A1
S1130D24020202000800000000000000000E020C91
S1130D34040102030101020307040B080E04070261
S1130D440702090407040608040800000000000060
S1130D54000000000000000000000000000000008B
S10D0D640000000000000000000081
S9030000FC
