:100000000C943E000C945B000C945B000C945B0021
:100010000C945B000C945B000C945B000C945B00F4
:100020000C945B000C945B000C945B000C945B00E4
:100030000C945B000C945B000C945B000C945B00D4
:100040000C945B000C945B000C945B000C945B00C4
:100050000C945B000C945B000C945B000C945B00B4
:100060000C945B000C945B000C945B000C945B00A4
:100070000C945B000C945B000C945B0011241FBE7D
:10008000CFEFD8E0DEBFCDBF11E0A0E0B1E0E0E30C
:10009000FCE002C005900D92A234B107D9F721E02F
:1000A000A2E4B1E001C01D92A934B207E1F70E94B9
:1000B0002B010C9416060C940000CF93DF93E0E123
:1000C000F0E080E090E0D1E0C0E0B2E0A0E0E1B993
:1000D000E2B9EE0FFF1F00990BC04D2F5C2F6B2F65
:1000E0007A2F20B130E026233723232B39F002C0AA
:1000F00040E050E0880F880F840F0CC0660F771F18
:100100004F5F5F4F4430510561F701968430910590
:10011000F1F68FEFDF91CF910895CF93DF93CDB7B5
:10012000DEB760970FB6F894DEBF0FBECDBF80314B
:1001300098F490E1EEE0F1E0DE01119601900D926D
:100140009A95E1F7E1E0F0E0EC0FFD1FE80FF11DFB
:1001500087FDFA95808101C08FEF60960FB6F89405
:10016000DEBF0FBECDBFDF91CF910895EF92FF921A
:100170000F931F93CF93DF938B01EB01E82EF12CAC
:100180000E945D008F3FE1F70E945D000E948D009C
:100190008E3040F49E01201B310B2E153F0514F4C8
:1001A00089930AC08A3241F4CE01801B910B181644
:1001B000190634F72197E4CF833211F78C2F801B77
:1001C000DF91CF911F910F91FF90EF9008958823B9
:1001D00079F0FB01A42FB52F680F711D81E030E08D
:1001E00021919D912913832FE617F707C9F70895E9
:1001F00081E008954C978095909590938500809329
:10020000840081E086BBB09BFECF08950F931F93BF
:10021000CF93DF9300D0CDB7DEB78C011A8219825D
:1002200089819A818017910778F488EE93E00E9483
:10023000FA0029813A812F5F3F4F3A832983298130
:100240003A812017310788F30F900F90DF91CF91FB
:100250001F910F910895CF93DF93CDB7DEB76197CC
:100260000FB6F894DEBF0FBECDBF81E0898390EF5B
:1002700091B9809381000E942B0280E091E09093DD
:100280004601809345010BE311E00F2EF8E2EF2EBB
:10029000F1E0FF2EF02DBE016E5F7F4F81E00E94E6
:1002A000B6008130C9F4AE014F5F5F4FBE016E5F93
:1002B0007F4F0E94E700813079F48EE191E00E9447
:1002C000310380ED97E00E940601FF92EF920E94B9
:1002D0001B030F900F90DFCF1F930F930E941B0300
:1002E00084EF91E00E9406018AE291E00E943103CE
:1002F0001F930F930E941B0384EF91E00E9406015D
:100300008AE291E00E9431031F930F930E941B0326
:1003100084EF91E00E9406018AE291E00E9431039D
:100320001F930F930E941B0384EF91E00E9406012C
:100330008AE291E00E9431030FB6F894DEBF0FBE4F
:10034000CDBFA9CF479A85E08A95F1F7000047987D
:1003500085E08A95F1F70000089584B1807F84B923
:1003600095B1292F20712C98469A479A85E08A9555
:10037000F1F7000093B1479885E08A95F1F7000006
:10038000479A85E08A95F1F7000083B19295907FB6
:100390008F70892B479895E09A95F1F7000087FDBB
:1003A000E4CF469895B19F7E922B95B994B19F600A
:1003B00094B908950E94AD0184B1807F84B9469AB2
:1003C000479A85E08A95F1F7000023B1479885E0C8
:1003D0008A95F1F70000479A85E08A95F1F70000C9
:1003E00093B12295207F892F8F704798469894B1BA
:1003F0009F6094B9822B0895CF93C82F0E94AD01BE
:1004000095B18C2F82958F70907F982B95B90E9413
:10041000A20195B18C2F8F70907F892B85B9CF91D8
:100420000C94A201CF93C82F2C980E94AD0195B1D6
:100430008C2F82958F70907F982B95B90E94A20186
:1004400095B18C2F8F70907F892B85B90E94A20166
:100450002C9ACF91089585B1807E85B92C984698C5
:10046000479884B18F6184B987B1806C87B98FE573
:100470009AEE0197F1F700C0000085B1807F83609C
:1004800085B90E94A20187E090E20197F1F700C0D0
:10049000000085B1807F836085B90E94A20187EC4E
:1004A00090E00197F1F700C0000085B1807F836084
:1004B00085B90E94A2010E94AD0185B1807F826052
:1004C00085B90E94A20184E20E9412028CE20E947D
:1004D000120288E00E94120281E00E94120286E06D
:1004E0000E9412028FE00E94120280ED0E9412020E
:1004F0002C9A08953F924F925F926F927F928F92C3
:100500009F92AF92BF92CF92DF92EF92FF920F93A2
:100510001F93CF93DF93CDB7DEB7E0970FB6F89474
:10052000DEBF0FBECDBF8A3009F481C0382E809166
:10053000420181111DC0832D0E94FC0181E090E0E9
:10054000E0960FB6F894DEBF0FBECDBFDF91CF911E
:100550001F910F91FF90EF90DF90CF90BF90AF90E1
:100560009F908F907F906F905F904F903F900895F5
:1005700080EC0E9412028E010F5F1F4F4E0181E13D
:10058000880E911C78010E94DA01F70181937F01A6
:10059000E815F905C1F780E90E94120264015E01C5
:1005A000F1E2AF0EB11C74010E94DA01F7018193F0
:1005B0007F01EA15FB05C1F780ED0E94120275016B
:1005C0003E01F1E36F0E711C25010E94DA01F20178
:1005D00081932F01E615F705C1F781E00E94120211
:1005E00080E80E941202F80181918F010E94FC01B3
:1005F00080169106C1F780EC0E941202F6018191EB
:100600006F010E94FC01AC14BD04C1F780E90E9497
:100610001202F70181917F010E94FC016E147F0498
:10062000C1F780ED0E9412021092420184CF81E056
:100630008093420183CFA0E0B0E0E1E2F3E00C94CC
:10064000EF05AE014B5F5F4FFA0161917191AF0110
:1006500080914501909146010E946103E2E00C9473
:100660000B060F931F93CF93DF93E0914501F09119
:100670004601238121FF1BC08C01D0E0C0E0F801BE
:1006800081918F016091450170914601DB011896BF
:10069000ED91FC911997882331F00995892B79F315
:1006A000DFEFCFEFECCF8AE00995892B19F08FEFC0
:1006B0009FEF02C08D2F9C2FDF91CF911F910F9143
:1006C0000895ACE0B0E0E7E6F3E00C94DF057C01D0
:1006D0006B018A01FC0117821682838181FFBDC1F3
:1006E000CE0101964C01F7019381F60193FD8591AE
:1006F00093FF81916F01882309F4ABC1853239F4EE
:1007000093FD859193FF81916F01853229F4B701A3
:1007100090E00E944905E7CF512C312C20E0203297
:10072000A0F48B3269F030F4803259F0833269F4EE
:1007300020612CC08D3239F0803339F4216026C01D
:100740002260246023C0286021C027FD27C030ED2F
:10075000380F3A3078F426FF06C0FAE05F9E300D7D
:100760001124532E13C08AE0389E300D1124332EED
:1007700020620CC08E3221F426FD6BC1206406C0BD
:100780008C3611F4206802C0883641F4F60193FDDE
:10079000859193FF81916F018111C1CF982F9F7D2A
:1007A0009554933028F40C5F1F4FFFE3F9830DC07D
:1007B000833631F0833771F0833509F05BC022C096
:1007C000F801808189830E5F1F4F44244394512C8C
:1007D000540115C03801F2E06F0E711CF801A080C1
:1007E000B18026FF03C0652D70E002C06FEF7FEF80
:1007F000C5012C870E943E052C0183012C852F7793
:10080000222E17C03801F2E06F0E711CF801A08093
:10081000B18026FF03C0652D70E002C06FEF7FEF4F
:10082000C5012C870E9433052C012C852068222EBF
:10083000830123FC1BC0832D90E048165906B0F4B9
:10084000B70180E290E00E9449053A94F4CFF501A7
:1008500027FC859127FE81915F01B70190E00E94FE
:10086000490531103A94F1E04F1A510841145104EE
:1008700071F7E5C0843611F0893639F5F80127FFA4
:1008800007C060817181828193810C5F1F4F08C016
:1008900060817181072E000C880B990B0E5F1F4F32
:1008A0002F76722E97FF09C090958095709561956F
:1008B0007F4F8F4F9F4F2068722E2AE030E0A401B7
:1008C0000E948105A82EA81844C0853729F42F7EE0
:1008D000B22E2AE030E025C0F22FF97FBF2E8F36EE
:1008E000C1F018F4883579F0B4C0803719F0883732
:1008F00021F0AFC02F2F2061B22EB4FE0DC08B2D82
:100900008460B82E09C024FF0AC09F2F9660B92EBC
:1009100006C028E030E005C020E130E002C020E160
:1009200032E0F801B7FE07C0608171818281938156
:100930000C5F1F4F06C06081718180E090E00E5F08
:100940001F4FA4010E948105A82EA818FB2DFF7738
:100950007F2E76FE0BC0372D3E7FA51450F474FE1B
:100960000AC072FC08C0372D3E7E05C0BA2C372D58
:1009700003C0BA2C01C0B52C34FF0DC0FE01EA0D36
:10098000F11D8081803311F4397E09C032FF06C029
:10099000B394B39404C0832F867809F0B39433FDE5
:1009A00013C030FF06C05A2CB31418F4530C5B1854
:1009B000B32CB31468F4B70180E290E03C870E9446
:1009C0004905B3943C85F5CFB31410F43B1801C02E
:1009D000312C34FF12C0B70180E390E03C870E94C5
:1009E00049053C8532FF17C031FD03C088E790E020
:1009F00002C088E590E0B7010CC0832F867859F0DB
:100A000031FF02C08BE201C080E237FD8DE2B70109
:100A100090E00E944905A51438F4B70180E390E006
:100A20000E9449055A94F7CFAA94F401EA0DF11DEA
:100A30008081B70190E00E944905A110F5CF3320D5
:100A400009F451CEB70180E290E00E9449053A9442
:100A5000F6CFF7018681978102C08FEF9FEF2C962A
:100A6000E2E10C94FB05FC0105906150704001101F
:100A7000D8F7809590958E0F9F1F0895FC016150C7
:100A8000704001900110D8F7809590958E0F9F1FB0
:100A900008950F931F93CF93DF93FB01238121FDD3
:100AA00003C08FEF9FEF28C022FF16C046815781F9
:100AB000248135814217530744F4A081B1819D01FF
:100AC0002F5F3F4F318320838C93268137812F5FA7
:100AD0003F4F3783268310C0EB01092F182F008466
:100AE000F185E02D0995892BE1F68E819F81019694
:100AF0009F838E83812F902FDF91CF911F910F9134
:100B00000895FA01AA27283051F1203181F1E894A3
:100B10006F936E7F6E5F7F4F8F4F9F4FAF4FB1E0F0
:100B20003ED0B4E03CD0670F781F891F9A1FA11DEB
:100B3000680F791F8A1F911DA11D6A0F711D811DEC
:100B4000911DA11D20D009F468943F912AE0269FB1
:100B500011243019305D3193DEF6CF010895462F10
:100B60004770405D4193B3E00FD0C9F7F6CF462FF1
:100B70004F70405D4A3318F0495D31FD405241935A
:100B800002D0A9F7EACFB4E0A69597958795779517
:100B90006795BA95C9F700976105710508959B019E
:100BA000AC010A2E06945795479537952795BA9527
:100BB000C9F7620F731F841F951FA01D08952F9200
:100BC0003F924F925F926F927F928F929F92AF92DD
:100BD000BF92CF92DF92EF92FF920F931F93CF932A
:100BE000DF93CDB7DEB7CA1BDB0B0FB6F894DEBFC1
:100BF0000FBECDBF09942A88398848885F846E84E7
:100C00007D848C849B84AA84B984C884DF80EE8030
:100C1000FD800C811B81AA81B981CE0FD11D0FB639
:100C2000F894DEBF0FBECDBFED010895F894FFCF5D
:100C300000000002000000007A0200000000010233
:100C4000030A0405060B0708090C2A00230D4F7040
:100C5000656E206C6F636B000A200A200A200A2050
:100C60000A200A200A200A200A20004572726F72A8
:020C7000000082
:00000001FF
